:020000040800F2
:1000000010060020410200084F02000851020008BB
:1000100053020008550200085702000800000000C3
:10002000000000000000000000000000590200086D
:100030005B020008000000005D0200085F0200088B
:100040006102000861020008610200086102000804
:1000500061020008610200086102000861020008F4
:1000600061020008610200086102000861020008E4
:1000700061020008610200086102000861020008D4
:1000800061020008610200086102000861020008C4
:1000900061020008610200086102000861020008B4
:1000A00061020008610200086102000861020008A4
:1000B0006102000861020008610200086102000894
:1000C0006102000861020008610200086102000884
:1000D00061020008ED3D00086102000861020008AD
:1000E0006102000861020008610200086102000864
:1000F0006102000861020008610200086102000854
:100100006102000861020008610200086102000843
:100110006102000861020008610200086102000833
:100120006102000861020008610200086102000823
:100130006102000861020008610200086102000813
:100140006102000861020008610200086102000803
:1001500061020008610200086102000861020008F3
:1001600061020008610200086102000861020008E3
:1001700061020008610200086102000861020008D3
:10018000610200086102000800F002F800F049F87E
:100190000AA090E8000C82448344AAF10107DA45E2
:1001A00001D100F03EF8AFF2090EBAE80F0013F0EB
:1001B000010F18BFFB1A43F001031847285900002C
:1001C00048590000103A24BF78C878C1FAD85207BD
:1001D00024BF30C830C144BF04680C6070470000C1
:1001E0000023002400250026103A28BF78C1FBD840
:1001F000520728BF30C148BF0B607047662905F021
:10020000A483002070471FB505F095FB00F012FB9A
:1002100004000020002104F0C3FDE0601FBD10B504
:1002200010BD00F023FC1146FFF7EDFF04F03AFC8F
:1002300000F041FC03B4FFF7F2FF03BC04F03BFB0A
:100240000B48016841F4700101600A480047FEE76D
:10025000FEE7FEE7FEE7FEE7FEE7FEE7FEE7FEE776
:10026000FEE7000004480549034A054B70470000BB
:1002700088ED00E08901000810020020100600202F
:1002800010020020704700000FB4044910B503AA03
:10029000029800F0BDFA10BC5DF814FB7800002055
:1002A0002DE9F05F894604464FF0000ADFF824B1DB
:1002B000FB44C0F820A02046E168884700287DD094
:1002C000252806D0D4E901219047206A401C2062ED
:1002D000F1E700255F462046E1688847202806466A
:1002E00007DB312E05D2B81910F8200C08B10543F0
:1002F000F1E7A80701D525F00405C4F81CA00027E4
:10030000C4F818A02A2E09D0304604F0CDFA38B32C
:1003100004EB8708303EC8F8186019E059F8041B50
:10032000204604EB87029161E1688847012F064669
:1003300018D1E069002820DA25F020051DE0D8F862
:10034000180000EB800006EB40003038C8F81800B9
:100350002046E1688847064604F0A6FA0028EED158
:10036000012F0AD02E2E08D12046E16888477F1C35
:100370000646022F45F02005C4DBA069002803DAF9
:10038000404245F00105A061E80701D025F01005C5
:10039000A6B1A6F14100192802D8203645F400651F
:1003A0004A463146204625604D46FFF727FF60B19B
:1003B000012807D0ED1D25F0070000E007E000F15F
:1003C000080978E705F1040975E730467AE7206AFD
:1003D000BDE8F09F9A56000070477047704770471D
:1003E00010B500F02BFA006810BD10B5044600F0FF
:1003F00025FA046010BD70472DE9FF4F0C461E46DC
:100400004FF0FF378BB0D2E90001DDF860800A9031
:100410008A46C1F30A5505B93D46002108464FF00A
:100420000000BAF1000F00F4400005DA00EB800094
:100430004FF4400101EA50004FEA9059B9F1010F21
:1004400000DDB9460A9850EA4A000ED044F6105032
:10045000A5F2FF3545432F14B8F1000F1ED07542A9
:10046000291E1EDDC9F100021CE0B8F1010F4FF09A
:10047000000001D0302103E0F24305E02154401C8C
:10048000B042FBDB30460022002121540B99C1F819
:100490000880C1E900200FB0BDE8F08FBD1B6D1CC6
:1004A000DEE74A4600DA694206A800F069FA06ABC0
:1004B00093E8070003AB83E8070050460A9900F071
:1004C00041FB8DE80700A0F500501F38009003980D
:1004D000002D09DD42F21F014A46084403A903909A
:1004E000684600F0A0FD08E0A0F500504A461F381D
:1004F00003A90390684600F0AAFD8DE807000004F8
:10050000000C03D04FF0FF30410800E01046B8F176
:10051000000F03D00022009215461EE0751E05D480
:1005200000F090F9303262556D1EF9D5B3460122C4
:10053000084302D000227F1C04E02078302801D13B
:1005400000227F1E002A099786D01DE0112D07DAB0
:1005500000F078F9303262556D1C50EA0102F5D195
:10056000084302D00098C8B10EE00021681E05E0E3
:10057000235C625C63542254401E491C8142F7DBB9
:10058000AB46A81B401E0990002004F80B000B98F6
:10059000099AC0F80880C0E9002B7CE711264FF0CB
:1005A000000859E72DE9F04F88460446D21D22F095
:1005B000070191B0D1E90001CDE90A0103F056FC31
:1005C00002460B98C00F01D02D2007E0206881075C
:1005D00001D52B2002E0202101EAC000032A099066
:1005E00001D0072A05DB03464146204600F088F982
:1005F0000BE12078800601D5E06900E00620B8F123
:10060000650F814606D0B8F1660F18D0B8F1670FB4
:1006100070D131E00020B9F1110F009001DB1123FE
:1006200001E009F101030AAA01A90CA8FFF7E4FE01
:10063000DDE90C70002609F10105834647E0012041
:100640004B4600904FF000470AAA01A90CA8FFF7FB
:10065000D3FEDDE90DB00C995D46002610B909F115
:1006600001000D18B9EB050003D4C0F1FF3609F104
:100670000105A5EB09002BE0B9F1010F01DA4FF0FC
:1006800001090020B9F1110F0090484601DD112346
:1006900000E003460AAA01A90CA8FFF7ADFEDDE9B8
:1006A0000C704D4600268346207800070AD4AB45DF
:1006B00000DA5D4601A8012D04DD411911F8011C85
:1006C000302907D04F4502DA17F1040F04DA012070
:1006D00082460FE06D1EEEE7002F02DCED1B3E446C
:1006E00003E0781CA84200DD7D1CB81B00F1010A64
:1006F0004FF000472078000703D4AA4501DB4FF0F4
:10070000FF3A0021B7F1004F0DF143088DF8431077
:1007100024D002202B23002F01DA7F422D230A212F
:10072000021EA0F1010000DC5FB197FBF1FC97FB1A
:10073000F1F201FB1C7C17460CF1300C08F801CDDE
:10074000EEE7A8F1010003702188090501D54521D4
:1007500000E06521A0F1010800F8011C09980FA92B
:10076000A1EB0807FF1D00B10120411901EBEA7060
:10077000A1693844081A401EA0612078C00602D43E
:100780002046AFF30080099828B1D4E901219047B1
:10079000206A401C20622078C00622D52046AFF394
:1007A00000801EE0002E04DBB34502DD01A8805D61
:1007B00000E03020D4E901219047206A401C2062EB
:1007C000761CAAF101005FEA000A0AD100F032F8B3
:1007D000C0680168405CD4E901219047206A401C50
:1007E0002062281EA5F10105DCDC07E0D4E9012127
:1007F00018F8010B9047206A401C2062381EA7F1B0
:100800000107F3DC2046AFF30080032011B043E67C
:10081000074B70B50D467B4400F05FF80446284650
:1008200000F01CF910B14FF0FF3070BD204670BDD4
:100830002B42000000487047CC0100200048704760
:10084000AC01002030B5B0F10A024FEA900E71F110
:1008500000034EEA817EB0EB0E0061EB91014FEA9E
:10086000101E4EEA017E10EB0E0041EB11114FEA13
:10087000102E4EEA016E10EB0E0041EB11214FEAF3
:10088000104E4EEA014E10EB0E0041EB11414018A4
:1008900041F100014FEAD00040EA41704FEAD10136
:1008A00010EB80054FEA810444EA907444EB0104A4
:1008B0006D1944EB0404521BA3414FF0000348BFE1
:1008C0000A3200D530BD401C41F1000130BD0000AE
:1008D00001694A1C02610878704700B58FB0CDE904
:1008E00001310021059105497944CDE903101146F4
:1008F0006846FFF7D5FC0FB000BD0000E5FFFFFF25
:100900002DE9F0411F46044603260168072A01F439
:10091000006004DB08B116A505E016A503E008B1E8
:1009200015A500E015A521F010002060A069C01EEB
:10093000A0610FB1401EA0612046AFF300804FB10F
:10094000D4E9012138469047206A401C2062C01C2F
:10095000206206E0206AFAE7D4E9012115F8010BCC
:100960009047761EF8D22046AFF30080BDE8F081B4
:100970004E414E006E616E00494E4600696E660043
:100980002DE9F047814616468AB0334878440DC8B1
:100990008DE80D0030487844801C03AC0DC884E815
:1009A0000D0041F69B300844372190FBF1F290FB9B
:1009B000F1F5A5F1800501FB12041B3C02D5644250
:1009C000012000E00020DFF890A080460027FA44D4
:1009D000AAF1BE0A0DE0E00709D03246684607EBEF
:1009E00047010AEB810100F032FB8DE8070064103B
:1009F0007F1C002CEFD1184F7F44AC3F18E0E80774
:100A000014D007EB04100DF1180A90E80E008AE8E4
:100A10000E00C068F04201D198190890324606A92C
:100A200003A800F014FB03AB83E807006D10641CFF
:100A3000002DE4D132466946B8F1000F03A802D078
:100A400000F0F1FA01E000F002FBC9E90001C9F889
:100A500008200AB0BDE8F0873C510000007B00F0A0
:100A60008000704700487047AC0100207546FFF7D2
:100A7000F9FFAE4605006946534620F0070085465B
:100A800018B020B5FFF7EEFBBDE820404FF00006A0
:100A90004FF000074FF000084FF0000B21F0070166
:100AA000AC46ACE8C009ACE8C009ACE8C009ACE8A9
:100AB000C0098D4670470446AFF300802046FFF71B
:100AC000B9FB00004FF0013C50F8042B51F8043BF7
:100AD0009A4221D1A2EB0C03934313EACC1317D112
:100AE00050F8042B51F8043B9A4215D1A2EB0C03A9
:100AF000934313EACC130BD150F8042B51F8043B69
:100B00009A4209D1A2EB0C03934313EACC13DBD036
:100B10004FF00000704700BFD01A01BAB1FA81F15E
:100B200001F0180122FA01F0CB40C1F12001DBB243
:100B3000C0B2C01A2CFA01F3D11A914311EAC311C1
:100B4000E6D170475FEA400C08BF91F0000F4FEA12
:100B50008C234FEAC12243EA51514FEA1C5018BF7F
:100B600000F5F0404FEA300018BF41F000415FEA65
:100B70006C5C00F02980BCF1FF3F08BF40F0804072
:100B80007047130C06BF12044FF0100C4FF0000C0E
:100B9000130E04BF12020CF1080C130F04BF120154
:100BA0000CF1040C930F04BF92000CF1020CD30F54
:100BB00004BF52000CF1010C11464FF00002A0F1ED
:100BC0001F00A0EB0C00704711F0004F08BF7047EA
:100BD00031F000413FF4D5AF0B0C06BF09044FF0D4
:100BE000100C4FF0000C0B0E04BF09020CF1080CA6
:100BF0000B0F04BF09010CF1040C8B0F04BF89001B
:100C00000CF1020CCB0F04BF49000CF1010CCCF12C
:100C10002003A0EB0C0022FA03F302FA0CF241EAE3
:100C2000030100F10100704720F07F4C80EA0300CF
:100C300023F07F47ACEB070303F57C5300F0004043
:100C400003F1FF032DE980494FEA154B09B44FEA40
:100C5000144325EA0B4E24EA03480FF2042606EB60
:100C6000132749083E785FEA320203FB0667C7F59F
:100C7000000707FB06F64FEA54374FEAD64606F15F
:100C8000020607FB066CCCF1005C4FEA1C472CEA1D
:100C9000074C07FB06F40CFB06F504EB15464FEA80
:100CA000961634BF00204FF000404FEAD13706FBC4
:100CB00007FC4FEA1C4C0CFB0BF7D21B03FB0CF799
:100CC00061EB07010CFB0EF7B0EB074072EB17422C
:100CD0000CFB08F734BFA2EB0742B2EB074261EB13
:100CE00017414FEA0C444FEA910706FB07FC4FEA15
:100CF0001C4C0CFB0BF7B0EBC74072EB573203FBFD
:100D00000CF734BFA2EBC742B2EBC74261EB5731DD
:100D10000CFB0EF7B0EBC70072EB57720CFB08F739
:100D200034BFA2EBC702B2EBC70261EB5771039F5E
:100D30004FEA816141EA921104EBCC044FEAD137CA
:100D40004FEA826206FB07FC42EA90124FEA80609B
:100D50004FEA1C4C0CFB0BF7D21B03FB0CF761EBAF
:100D600007010CFB0EF7B0EB074072EB17420CFBD0
:100D700008F734BFA2EB0742B2EB074261EB174121
:100D80004FEA8C554FEA910704EB9C2406FB07FCC5
:100D90004FEA1C4C0CFB0BF7B0EBC74072EB573221
:100DA00003FB0CF734BFA2EBC742B2EBC74261EBC7
:100DB00057310CFB0EF7B0EBC70072EB57720CFB10
:100DC00008F734BFA2EBC702B2EBC70261EB577161
:100DD00015EB4C254FEA816141EA92114FEA82629C
:100DE0004FEAD13742EA901206FB07FC44F10004B7
:100DF0004FEA80604FEA1C4C0CFB0BF7D21B03FB45
:100E00000CF761EB07010CFB0EF7B0EB074072EB40
:100E100017420CFB08F734BFA2EB0742B2EB0742C4
:100E200061EB174115EB1C154FEA813141EA924104
:100E30004FEA823242EA90424FEA80304FEA0C7623
:100E400044F1000448EA03434EEA0B484FF0000E19
:100E5000B2EB080C71EB030724BF624639464EEB38
:100E60000E0E4FF0000B0018524149414BEB0B0B9B
:100E7000B2EB080C71EB03077BF1000B24BF624659
:100E800039464EEB0E0E4FF0000B0018524149410F
:100E90004BEB0B0BB2EB080C71EB03077BF1000B78
:100EA00024BF624639464EEB0E0E51EA020718BFC8
:100EB00046F0010616EB0E7655F1000254F10001E2
:100EC00003D5BDE88901BDE80088BDE88901BDE81A
:100ED0000048B619524141EB0101A3F101037047EB
:100EE00080807F7E7D7C7B7A797877767675747367
:100EF000727171706F6E6E6D6C6C6B6A6A69686826
:100F0000676666656464636362616160605F5F5EBB
:100F10005E5D5D5C5C5B5B5A5A5959585857575631
:100F20005655555554545353525252515150505096
:100F30004F4F4F4E4E4D4D4D4C4C4C4B4B4B4A4AE8
:100F40004A4949494848484747474746464645452C
:100F50004544444444434343434242424241414165
:100F6000002B26D4770021D01CB54FEA370703B4F5
:100F70004FF010004FF010014FF000000FBCBDE823
:100F800010400BF1010BBBF1010F08BF5FEA17071F
:100F900022BF12F1010211F101014FF0004143F1B2
:100FA000000300F0004043EA00007047F9D35708FF
:100FB000DAE746EA064613F1400F4FEA16461FDD10
:100FC00013F1200FDFBF16430A46002120335B4296
:100FD000C8D0C3F1200746EA064602FA07F74FEAEF
:100FE000164646EA0706C3F1200722FA03F201FA81
:100FF00007F721FA03F14FF0000342EA0702B1E7D5
:1010000046EA020646EA06464FEA164646EA010660
:10101000BCBF46EA0646360C4FF000034FF0000214
:101020004FF000019EE72DE9C048934630B491E8A7
:10103000380007C831EA400C48BF34EA430C03D5F6
:10104000FFF7F2FDFFF78CFFF0BCBDE800882DE94B
:10105000C048934630B491E8380007C810F0804F7C
:1010600008BF13F0804F03D100F005F8FFF778FFB9
:10107000F0BCBDE8008820F07F4780EA030023F041
:101080007F4C07EB0C03A3F57C5300F00040A3F169
:10109000FE0392F0000F00F0B38095F0000F00F017
:1010A00077802DE901494FEA11404FEA144621EAC1
:1010B000004800FB06FC24EA064708FB06F607FB8F
:1010C00008F800FB07F718EB06484CEB164C4FEA04
:1010D000124B18EB07484FEA15464CEB174022EA33
:1010E0000B4E0BFB06FC25EA06470EFB06F607FB3C
:1010F0000EFE0BFB07F71EEB064E4CEB164C4FF0AB
:1011000000061EEB074E4CEB174B18EB0B0840F19B
:10111000000018EB0E0B58EB000840F100008F1A8E
:101120004FF000013CBFC943661B14BFB5EB040C74
:1011300000213CBFC943F61B4FEA17444EEA8E0E0E
:1011400027EA04454FEA1C4704FB07622CEA074CD8
:1011500005FB07F70CFB05F604FB0CFC16EB07463A
:1011600042EB174216EB0C4642EB1C421BEB060609
:1011700058EB0202414146EA9E0601D5BDE80189CD
:10118000B619524141EB0101A3F10103BDE8018908
:101190004FEA14454FEA114724EA054621EA074C75
:1011A00005FB07F406FB07F70CFB06F105FB0CFC3F
:1011B00011EB074144EB17444FEA124711EB0C4186
:1011C00044EB1C4422EA074C05FB07F206FB07F739
:1011D0000CFB06F605FB0CFC16EB074642EB174230
:1011E00016EB0C4642EB1C456A1854F1000148BF4F
:1011F0007047B619524141EB0101A3F10103704759
:1012000095F0000F37D04FEA11424FEA144721EA18
:10121000024624EA074C02FB07F106FB07F70CFB2A
:1012200006F402FB0CFC14EB074441EB17414FEAB8
:10123000154714EB0C4441EB1C4125EA074C02FB1B
:1012400007F506FB07F70CFB06F602FB0CFC16EB9A
:10125000074645EB174516EB0C4645EB1C421219A9
:1012600051F1000148BF7047B619524141EB0101ED
:10127000A3F1010370474FEA14454FEA114724EAEE
:10128000054621EA074C05FB07F106FB07F70CFBB7
:1012900006F24FF0000605FB0CFC12EB074241EB97
:1012A000174112EB0C4251EB1C4148BF704792189A
:1012B00041EB0101A3F101037047000007B52DEDDB
:1012C0000A0BAEB0FE4890ED000A20EE000A8DED4C
:1012D0001D0A90ED000AFB48D0ED000A20EE200A1E
:1012E0008DED1C0AF64890ED000AF748D0ED000A93
:1012F00020EE200A8DED1B0AF14890ED000AF3481C
:10130000D0ED000A20EE200A8DED1A0AED4890ED8E
:10131000000A20EE000A8DED190A90ED000AEA4855
:10132000D0ED000A20EE200A8DED180AE54890ED78
:10133000000AE648D0ED000A20EE200A8DED170ADB
:10134000E14890ED000A20EE000A8DED160A90EDBE
:10135000000ADE48D0ED000A20EE200A8DED150AC5
:1013600090ED000A20EE000A8DED140A9DED310A81
:1013700020EE000ADDED320A00EEA00ADDED330AB0
:1013800000EEA00A8DED130A9DED130A03F068FB31
:101390008DED2C0A9DED310ADDED2C0A20EE200AA0
:1013A0008DED310A9DED320ADDED2C0A20EE200A8A
:1013B0008DED320A9DED330ADDED2C0A20EE200A78
:1013C0008DED330A9DED340A20EE000ADDED350A7D
:1013D00000EEA00ADDED360A00EEA00A8DED130A3C
:1013E0009DED130A03F03CFB8DED2C0A9DED340AB4
:1013F000DDED2C0A20EE200A8DED340A9DED350A34
:10140000DDED2C0A20EE200A8DED350A9DED360A21
:10141000DDED2C0A20EE200A8DED360A9DED360A10
:10142000F0EE000A20EE201A9DED170ADDED1B0AF2
:1014300030EE200A21EE000A8DED0D0A0D9804F021
:1014400009FACDE910019DED350AF0EE000A20EE13
:10145000201A9DED180ADDED1A0A30EE600A21EE21
:10146000000A8DED090A099804F0F4F9CDE90C01A0
:10147000149804F0EFF9CDE90401169804F0EAF9A4
:101480009FED930B53EC102BCDE900019DED000B6C
:1014900051EC100B04F01CF8CDE902019DED040B9A
:1014A00053EC102B9DED020B51EC100B04F0E8F8FF
:1014B000CDE908019DED340AF0EE000A20EE200A85
:1014C0008DED050A059804F0C5F9CDE906019DEDFD
:1014D000080B53EC102B9DED060B51EC100B03F099
:1014E000F9FECDE90A019DED0C0B53EC102B9DED9F
:1014F0000A0B51EC100B03F0A7FCCDE90E019DED9A
:10150000100B53EC102B9DED0E0B51EC100B03F058
:101510009BFCCDE912019DED120B51EC100B03F079
:1015200061FC2B909DED360AF0EE000A20EE201AA9
:101530009DED150ADDED1C0A30EE600A21EE000A71
:101540008DED0D0A0D9804F085F9CDE91001149880
:1015500004F080F9CDE90401199804F07BF99FEDBE
:101560005C0B53EC102BCDE900019DED000B51EC11
:10157000100B03F0ADFFCDE902019DED040B53EC20
:10158000102B9DED020B51EC100B04F079F8CDE916
:1015900008019DED350AF0EE000A20EE200A8DEDDF
:1015A000050A059804F056F9CDE906019DED080BF2
:1015B00053EC102B9DED060B51EC100B03F08AFE43
:1015C000CDE90C019DED340AF0EE000A20EE201A60
:1015D0009DED180ADDED1A0A30EE200A21EE000A10
:1015E0008DED090A099804F035F9CDE90A019DED60
:1015F0000C0B53EC102B9DED0A0B51EC100B03F070
:1016000023FCCDE90E019DED100B53EC102B9DED4D
:101610000E0B51EC100B03F017FCCDE912019DED00
:10162000120B51EC100B03F0DDFB2A90169804F01E
:1016300011F9CDE90801199804F00CF99FED240B7C
:1016400053EC102BCDE904019DED040B51EC100B74
:1016500003F03EFFCDE906019DED080B53EC102B86
:101660009DED060B51EC100B04F00AF8CDE90C01CE
:101670009DED360AF0EE000A20EE200A8DED090AF3
:10168000099804F0E7F8CDE90A019DED0C0B53EC45
:10169000102B9DED0A0B51EC100B03F01BFECDE956
:1016A00010019DED340AF0EE000A20EE201A9DEDA7
:1016B000170ADDED1B0A30EE600A21EE000A0BE08E
:1016C0000000002004000020080000200C00002082
:1016D000000000000000E03FDDED350AB0EE001A2A
:1016E00060EE811ADDED150A9DED1C1A70EE810A7F
:1016F00001EEA00A8DED0D0A0D9804F0ABF8CDE9CE
:101700000E019DED100B53EC102B9DED0E0B51ECCB
:10171000100B03F099FBCDE912019DED120B51EC7A
:10172000100B03F05FFB29909DED2B0A20EE000AC1
:10173000DDED2A0A00EEA00A8DED0F0A0F9804F0E5
:1017400089F8CDE910019DED100B02F0BDFF8DED84
:10175000120B9DED120B51EC100B03F043FB289084
:101760009DED290A8DED270A9DED170ADDED1B0A77
:1017700030EE600AF0EE000A20EE200A8DED260A17
:101780009DED1C0ADDED150A30EE200AF0EE000A90
:1017900020EE200A8DED250A9DED1D0ADDED190ACA
:1017A00070EE600A9DED160A70EEC00A9DED140AF7
:1017B00030EE800A8DED240A9DED270AF0EE000A36
:1017C00020EE201A9DED170ADDED1B0A30EE600AAF
:1017D00021EE000A8DED0D0A0D9804F03BF8CDE9DD
:1017E0001001149804F036F8CDE90801169804F0B9
:1017F00031F81FED490B53EC102BCDE904019DEDA1
:10180000040B51EC100B03F063FECDE906019DEDD6
:10181000080B53EC102B9DED060B51EC100B03F055
:101820002FFFCDE90C019DED280AF0EE000A20EE15
:10183000200A8DED090A099804F00CF8CDE90A0197
:101840009DED0C0B53EC102B9DED0A0B51EC100B86
:1018500003F040FDCDE90E019DED100B53EC102B74
:101860009DED0E0B51EC100B03F0EEFACDE91201D9
:101870009DED120B51EC100B03F0B4FA23909DED8B
:10188000280AF0EE000A20EE201A9DED180ADDED80
:101890001A0A30EE600A61EE000A9DED270AB0EEEA
:1018A000001A60EE011A9DED1C0A9DED151A30EE2E
:1018B000011AB0EE600A01EE810A8DED220A169837
:1018C00003F0C8FFCDE90801199803F0C3FF1FED2D
:1018D000800B53EC102BCDE904019DED040B51EC72
:1018E000100B03F0F5FDCDE906019DED080B53EC5F
:1018F000102B9DED060B51EC100B03F0C1FECDE952
:101900000C019DED270AF0EE000A20EE200A8DED75
:10191000090A099803F09EFFCDE90A019DED0C0B21
:1019200053EC102B9DED0A0B51EC100B03F0D2FC85
:10193000CDE910019DED280AF0EE000A20EE201AF4
:101940009DED1B0ADDED170A30EE200A21EE000A9C
:101950008DED0D0A0D9803F07DFFCDE90E019DED93
:10196000100B53EC102B9DED0E0B51EC100B03F0F4
:101970006BFACDE912019DED120B51EC100B03F047
:1019800031FA2190DDED320A9DED240A60EE800AE5
:101990009DED331A9DED250A41EE400A9DED351A65
:1019A0009DED210A61EE001A9DED361A9DED220A89
:1019B00041EE401A30EEA10A8DED200ADDED330A2A
:1019C0009DED260A60EE800A9DED311A9DED240AF8
:1019D00041EE400A9DED361A9DED230A21EE001AD4
:1019E000DDED341A9DED210A01EEC01A30EE810AB8
:1019F0008DED1F0ADDED310A9DED250A60EE800AAE
:101A00009DED321A9DED260A41EE400A9DED341AF5
:101A10009DED220A61EE001A9DED351A9DED230A17
:101A200041EE401A30EEA10A8DED1E0A9DED200A0E
:101A3000DFEDFE0A60EE200AFD4890ED000A9FED02
:101A4000FD1A00EE810A80ED000A9DED1F0ADFED10
:101A5000F70A60EE200AF84890ED000A9FEDF51AAB
:101A600000EE810A80ED000A9DED1E0ADFEDEF0A0F
:101A700060EE200AF14890ED000A9FEDEE1A00EEAC
:101A8000810A80ED000A9DED2E0ADDED200A9FED12
:101A9000EC1A01EE200AE648D0ED000A30EE200AEA
:101AA0008DED2E0A9DED2F0ADDED1F0A9FEDE41A44
:101AB00001EE200AE048D0ED000A30EE200A8DED5C
:101AC0002F0A9DED300ADDED1E0A9FEDDD1A01EEB5
:101AD000200ADA48D0ED000A30EE200A8DED300AF7
:101AE0009DED2E0AB1EE400AD648D0ED000A20EE58
:101AF000200ADDED2F0AD44890ED001A00EEC10A4D
:101B0000DDED300AD14890ED001A00EEC10A8DEDEE
:101B10000F0A0F9803F09EFE9FEDCD0B53EC102B98
:101B2000CDE910019DED100B51EC100B03F0D2FB31
:101B3000CDE912019DED120B51EC100B03F052F99F
:101B4000C54908609DED2E0AC448D0ED000A20EE7C
:101B5000200ADDED300ABC4890ED001A00EE810A43
:101B6000DDED2F0AB94890ED001A00EEC10A8DEDA7
:101B70000F0A0F9803F06EFE9FEDB50B53EC102B80
:101B8000CDE910019DED100B51EC100B03F0A2FB01
:101B9000CDE912019DED120B51EC100B03F022F96F
:101BA000AF4908609DED2F0AAC48D0ED000A20EE49
:101BB000200ADDED300AA34890ED001A00EEC10ABC
:101BC000DDED2E0AA14890ED001A00EE810A8DEDA0
:101BD0000F0A0F9803F03EFE9FED9D0B53EC102B68
:101BE000CDE910019DED100B51EC100B03F072FBD1
:101BF000CDE912019DED120B51EC100B03F0F2F840
:101C0000984908609DED300A9448D0ED000A20EE16
:101C1000200ADDED2F0A8B4890ED001A00EE810AB4
:101C2000DDED2E0A884890ED001A00EEC10A8DED18
:101C30000F0A0F9803F00EFE9FED850B53EC102B4F
:101C4000CDE910019DED100B51EC100B03F042FBA0
:101C5000CDE912019DED120B51EC100B03F0C2F80F
:101C6000814908609DED2E0ADFED800A70EEC00A02
:101C7000744890ED000A7A4890ED001ADFED7B1A67
:101C800001EE810A20EE800A7448D0ED000A724805
:101C900090ED001ADFED751A41EE810A9FED731A7F
:101CA00001EE200ADDED2F0A9FED701A31EE601A69
:101CB0006548D0ED000A6B48D0ED001A9FED6B2A05
:101CC00042EE210A01EE200ADDED300A9FED671A8F
:101CD00031EE601A5D48D0ED000A0846D0ED001ADA
:101CE0009FED622A42EE210A01EE200A8DED0F0AD5
:101CF0000F9803F0AFFD9FED560B53EC102BCDE981
:101D000010019DED100B51EC100B03F0E3FACDE93F
:101D100012019DED120B51EC100B03F063F85449C6
:101D200008609DED2E0ADFED510A70EE200A4B4847
:101D300090ED000A484890ED001ADFED4C1A01EED4
:101D4000810A20EE800A3F48D0ED000A444890ED19
:101D5000001ADFED461A41EE810A9FED441A01EEAA
:101D6000200ADDED300A9FED411A30EE811A364827
:101D7000D0ED000A3B48D0ED001A9FED3C2A42EE20
:101D8000210A01EE200ADDED2F0A9FED381A31EE0F
:101D9000601A2E48D0ED000A3348D0ED001A9FEDAE
:101DA000332A42EE210A01EE200A8DED0F0A0F9828
:101DB00003F050FD9FED260B53EC102BCDE91001E5
:101DC0009DED100B51EC100B03F084FACDE91201DC
:101DD0009DED120B51EC100B03F004F8254908603F
:101DE0009DED2F0ADFED210A70EE200A1B4890EDD1
:101DF000000A194890ED001ADFED1C1A01EE810A65
:101E000020EE800ADDED300A9FED181A31EE601ADF
:101E10000C48D0ED000A1248D0ED001A9FED132AAD
:101E200042EE210A01EE200A074825E00AD7A33C2A
:101E3000100000206F12033C140000201800002046
:101E40000000204204000020080000200C000020B8
:101E5000000000000000E03F3400002000000020EF
:101E6000380000203C000020400000206F12833B1F
:101E70004400002048000020D0ED000AFE4890ED0C
:101E8000001A5FED061A41EE810A1FED081A01EEF5
:101E9000200ADDED2E0A1FED0B1A30EE811AF748ED
:101EA000D0ED000AF648D0ED001A1FED102A42EEE0
:101EB000210A01EE200A8DED0F0A0F9803F0CAFCEB
:101EC0001FED1D0B53EC102BCDE910019DED100BF8
:101ED00051EC100B03F0FEF9CDE912019DED120B50
:101EE00051EC100B02F07EFFE64908609DED300AD0
:101EF0005FED220A70EE200AE34890ED000AE34805
:101F000090ED001A5FED271A01EE810A20EE800A9B
:101F1000DDED2F0A1FED2B1A30EE811ADC48D0EDD3
:101F2000000ADC48D0ED001A1FED302A42EE210AEB
:101F300001EE200ADDED2E0A1FED341A31EE601A93
:101F4000D548D0ED000ACC48D0ED001A1FED392A53
:101F500042EE210A01EE200AC848D0ED000AC84826
:101F600090ED001A5FED3F1A41EE810A1FED411A14
:101F700001EE200A8DED0F0A0F9803F06BFC1FEDA8
:101F80004C0B53EC102BCDE910019DED100B51ECD7
:101F9000100B03F09FF9CDE912019DED120B51ECEE
:101FA000100B02F01FFFBD4908609DED2E0A5FED8A
:101FB000510A70EEC00AB64890ED000AB84890ED9C
:101FC000001A5FED561A01EE810A20EE800AAE4833
:101FD000D0ED000AB34890ED001A5FED5C1A41EEB7
:101FE000810A1FED5E1A01EE200ADDED2F0A1FEDBA
:101FF000611A31EE601AA848D0ED000AA148D0ED70
:10200000001A1FED662A42EE210A01EE200ADDEDDC
:10201000300A1FED6A1A31EE601A9848D0ED000AB6
:102020000846D0ED001A1FED6F2A42EE210A01EE9C
:10203000200A8DED0F0A0F9803F00CFC1FED7C0BAE
:1020400053EC102BCDE910019DED100B51EC100B52
:1020500003F040F9CDE912019DED120B51EC100B8C
:1020600002F0C0FE904908609DED2E0A5FED810AE6
:1020700070EE200A844890ED000A8A4890ED001A1C
:102080005FED861A01EE810A20EE800A8048D0EDCD
:10209000000A834890ED001A5FED8C1A41EE810A28
:1020A0001FED8E1A01EE200ADDED300A1FED911AA8
:1020B00030EE811A7848D0ED000A7248D0ED001A4F
:1020C0001FED962A42EE210A01EE200ADDED2F0ACD
:1020D0001FED9A1A31EE601A6848D0ED000A6F4879
:1020E000D0ED001A1FED9F2A42EE210A01EE200AD0
:1020F0008DED0F0A0F9803F0ADFB1FEDAB0B53EC0A
:10210000102BCDE910019DED100B51EC100B03F0DD
:10211000E1F8CDE912019DED120B51EC100B02F02C
:1021200061FE624908609DED2F0A5FEDB00A70EE16
:10213000200A554890ED000A5A4890ED001A5FEDCC
:10214000B51A01EE810A20EE800ADDED300A1FED9E
:10215000B91A31EE601A4E48D0ED000A5048D0ED61
:10216000001A1FEDBE2A42EE210A01EE200A4A485B
:10217000D0ED000A434890ED001A5FEDC41A41EE1D
:10218000810A1FEDC61A01EE200ADDED2E0A1FEDB1
:10219000C91A30EE811A3948D0ED000A3F48D0ED17
:1021A000001A1FEDCE2A42EE210A01EE200A8DED23
:1021B0000F0A0F9803F04EFB1FEDDB0B53EC102BB7
:1021C000CDE910019DED100B51EC100B03F082F8DE
:1021D000CDE912019DED120B51EC100B02F002FE45
:1021E000334908609DED300A5FEDE00A70EE200A89
:1021F000254890ED000A2B4890ED001A5FEDE51A96
:1022000001EE810A20EE800ADDED2F0A1FEDE91AAA
:1022100030EE811A1E48D0ED000A2148D0ED001A98
:102220001FEDEE2A42EE210A01EE200ADDED2E0A14
:102230001FEDF21A31EE601A1748D0ED000A11486E
:10224000D0ED001A1FEDF72A42EE210A01EE200A16
:102250000A48D0ED000A114890ED001A5FEDFD1A12
:1022600041EE810A9FED131A01EE200A8DED0F0A4F
:102270000F9803F0EFFA1FE03C0000200C00002054
:10228000400000204C00002000000020340000200E
:10229000040000203800002008000020500000202A
:1022A0004800002044000020540000205800002076
:1022B0005C0000206F12833B9FEDFE0B53EC102B54
:1022C000CDE910019DED100B51EC100B03F002F85D
:1022D000CDE912019DED120B51EC100B02F082FDC5
:1022E000F64908609DED2E0ADFEDF50A70EEC00A92
:1022F000F44890ED000AF44890ED001ADFEDF01A72
:1023000001EE810A20EE800AF048D0ED000AF04884
:1023100090ED001ADFEDEA1A41EE810A9FEDE81A0E
:1023200001EE200ADDED2F0A9FEDE51A31EE601A6D
:10233000E848D0ED000AE848D0ED001A9FEDE02A09
:1023400042EE210A01EE200ADDED300A9FEDDC1A93
:1023500031EE601AE148D0ED000A0846D0ED001ACF
:102360009FEDD72A42EE210A01EE200A8DED0F0AD9
:102370000F9803F06FFA9FEDCF0B53EC102BCDE9C4
:1023800010019DED100B51EC100B02F0A3FFCDE9F5
:1023900012019DED120B51EC100B02F023FDD04900
:1023A00008609DED2E0ADFEDC60A70EE200AC748D0
:1023B00090ED000AC64890ED001ADFEDC11A01EE5B
:1023C000810A20EE800ABF48D0ED000ABE4890ED99
:1023D000001ADFEDBB1A41EE810A9FEDB91A01EE3A
:1023E000200ADDED300A9FEDB61A30EE811AB948A9
:1023F000D0ED000AB848D0ED001A9FEDB12A42EEA8
:10240000210A01EE200ADDED2F0A9FEDAD1A31EE13
:10241000601AB248D0ED000AA848D0ED001A9FED2E
:10242000A82A42EE210A01EE200A8DED0F0A0F982C
:1024300003F010FA9FED9F0B53EC102BCDE9100128
:102440009DED100B51EC100B02F044FFCDE9120191
:102450009DED120B51EC100B02F0C4FCA149086079
:102460009DED2F0ADFED960A70EE200A974890ED59
:10247000000A974890ED001ADFED911A01EE810AEB
:1024800020EE800ADDED300A9FED8D1A31EE601AE4
:102490008C48D0ED000A8C48D0ED001A9FED882AB8
:1024A00042EE210A01EE200A8A48D0ED000A8A484D
:1024B00090ED001ADFED821A41EE810A9FED801A3D
:1024C00001EE200ADDED2E0A9FED7D1A30EE811A15
:1024D0008248D0ED000A7948D0ED001A9FED782AA5
:1024E00042EE210A01EE200A8DED0F0A0F9803F04B
:1024F000B1F99FED700B53EC102BCDE910019DED60
:10250000100B51EC100B02F0E5FECDE912019DED30
:10251000120B51EC100B02F065FC734908609DED45
:10252000300ADFED670A70EE200A684890ED000A75
:10253000674890ED001ADFED621A01EE810A60EE45
:10254000800A9DED2F0A9FED5E1A70EE011A5D481C
:1025500090ED000A5C4890ED002ADFED592AB0EEBC
:10256000401A02EE821AB0EE600A01EE810ADDED39
:102570002E0A9FED531A31EE601A5648D0ED000A2C
:102580005548D0ED001A9FED4E2A42EE210A01EE89
:10259000200A5248D0ED000A484890ED001ADFEDBD
:1025A000481A41EE810A9FED461A01EE200A8DED90
:1025B0000F0A0F9803F04EF99FED3E0B53EC102BD2
:1025C000CDE910019DED100B51EC100B02F082FED5
:1025D000CDE912019DED120B51EC100B02F002FC43
:1025E00042490860424890ED000A4248D0ED000A96
:1025F000B0EE001A01EE200A3548D0ED000AB0EE28
:10260000001A01EE200A3648D0ED000A30EE200A0A
:102610008DED0B0A0B9803F01DF99FED370B53EC72
:10262000102BCDE90C019DED0C0B51EC100B02F0C1
:1026300051FECDE910012548006803F00BF9CDE902
:102640000E019DED100B53EC102B9DED0E0B51EC7C
:10265000100B02F0F9FBCDE912019DED120B51ECCC
:10266000100B02F0BFFB19490860254890ED000AE5
:102670002448D0ED000AB0EE001A01EE200A1248FC
:10268000D0ED000AB0EE001A01EE200A1548D0ED98
:10269000000A30EE200A8DED0B0A0B9803F0DAF8F1
:1026A0009FED150B53EC102BCDE90C019DED0C0BA0
:1026B0002AE00000000000000000E03F6000002071
:1026C0006F12033C0400002058000020000000208E
:1026D00054000020080000205C0000200C000020B6
:1026E00064000020680000206C00002070000020C2
:1026F0003400002044000020555555D567D8553F7B
:10270000380000204800002051EC100B02F0E2FDE0
:10271000CDE91001EA48006803F09CF8CDE90E010C
:102720009DED100B53EC102B9DED0E0B51EC100B8F
:1027300002F08AFBCDE912019DED120B51EC100B5A
:1027400002F050FBDE490860DE4890ED000ADE48EA
:10275000D0ED000AB0EE001A01EE200ADB48D0ED01
:10276000000AB0EE001A01EE200AD948D0ED000AA6
:1027700030EE200A8DED0B0A0B9803F06BF81FED7D
:10278000220B53EC102BCDE90C019DED0C0B51EC01
:10279000100B02F09FFDCDE91001CE48006803F058
:1027A00059F8CDE90E019DED100B53EC102B9DED6A
:1027B0000E0B51EC100B02F047FBCDE912019DED21
:1027C000120B51EC100B02F00DFBC2490860C2481D
:1027D00090ED000AC148D0ED000AB0EE001A01EEFB
:1027E000200ABF48D0ED000AB0EE001A01EE200A20
:1027F000BC48D0ED000A30EE200A8DED0B0A0B9894
:1028000003F028F81FED440B53EC102BCDE90C011D
:102810009DED0C0B51EC100B02F05CFDCDE91001AD
:10282000B148006803F016F8CDE90E019DED100BDC
:1028300053EC102B9DED0E0B51EC100B02F004FB32
:10284000CDE912019DED120B51EC100B02F0CAFA0A
:10285000A5490860A54890ED000A20EE000A9848B6
:10286000D0ED000A90ED001A00EE810A9948D0EDF3
:10287000000A90ED001A00EE810A0846D0ED000A29
:1028800090ED001A00EE810A8DED130A9DED130AFA
:1028900002F0E6F88DED2C0A9448D0ED000A9DED8B
:1028A0002C0A20EE800A80ED000A8548D0ED000A4F
:1028B0009DED2C0A20EE800A80ED000A8548D0EDBF
:1028C000000A9DED2C0A20EE800A80ED000A864861
:1028D000D0ED000A9DED2C0A20EE800A80ED000A62
:1028E000774890ED000AF8EE000A20EE200A7E48B4
:1028F000D0ED000A20EE200A7C48D0ED000AB0EEB0
:10290000001A60EE810A734890ED001A00EE810A09
:102910008DED0D0A0D9802F09DFFCDE90E019DEDA4
:102920000E0B01F0BDFA8DED100B9FED710B53EC0A
:10293000102B9DED100B51EC100B02F0CBFCCDE9F0
:1029400012019DED120B51EC100B02F04BFA39996C
:1029500008605B4890ED000AF8EE000A20EE200ABD
:10296000D0ED000A20EE200A5A48D0ED000AB0EE61
:10297000001A60EE810A90ED001A00EEC10AF7EE2F
:10298000000A30EE200A8DED0B0A0B9802F062FF70
:10299000CDE90E014F48D0ED000AB0EE000A20EE5E
:1029A000800A5148D0ED000A20EE200A4F48D0EDB1
:1029B000000AB0EE001A60EE810A414890ED001A5C
:1029C00000EE810A8DED0B0A0B9802F043FFCDE972
:1029D0000C019DED0E1B9DED0C0B01F07DFD8DEDB1
:1029E000100B9FED430B53EC102B9DED100B51EC96
:1029F000100B02F06FFCCDE912019DED120B51ECB2
:102A0000100B02F0EFF938990860384890ED000A91
:102A100020EE000A2A48D0ED000A90ED001A00EEE0
:102A2000810A2C48D0ED000A90ED001A00EEC10A90
:102A30002D48D0ED000A90ED001A00EEC10A8DED90
:102A40000B0A0B9802F006FFCDE90E011C4890ED31
:102A5000000A2048D0ED000A20EE200A2348D0EDDD
:102A6000000A214890ED001A00EE810AF0EE000AFB
:102A700020EE200A8DED0B0A0B9802F0EBFECDE95B
:102A80000C019DED0E1B9DED0C0B01F025FD8DED58
:102A9000100B9FED170B53EC102B9DED100B51EC11
:102AA000100B02F017FCCDE912019DED120B51EC59
:102AB000100B02F097F93A9908603BB000BD000096
:102AC000040000203C0000204C0000205C0000209E
:102AD0006C00002008000020400000205000002072
:102AE00060000020700000200C000020000000208A
:102AF0006666666666A64C4070B52DED088B04468A
:102B00000D4694ED000A10EE101A084602F0A2FEDF
:102B100041EC190BB5F9000002F0C5FB41EC1B0BB1
:102B20009FED090B53EC102B02F0D4FB41EC1A0B78
:102B300053EC192B02F088F941EC180B02F052F912
:102B40002060BDEC088B70BD000000000080764066
:102B500010B52DED048B98B000249FED3F0AB0EE28
:102B6000408A9FED3D0AB0EE409A9FED3B0AF0EEA1
:102B7000408A00BF4EE009A80AA90BAB12AACDE912
:102B8000001013A914A800F00BFC06A807A908ABB5
:102B90000FAACDE9001010A911A800F083FA03A82C
:102BA00004A905AB0CAACDE900100DA90EA800F0F0
:102BB00027FD15AA17A916A89DED034ADDED043AD5
:102BC0009DED053ADDED062A9DED072ADDED081A9B
:102BD0009DED091ADDED0A0A9DED0B0AFEF76EFB6D
:102BE00041F61E1001F0E6FE642C11DB9DED170A84
:102BF00038EE000AB0EE408A9DED160A39EE000A62
:102C0000B0EE409A9DED150A38EE800AF0EE408A4B
:102C1000601CC4B2962CAEDBB1EE480ADFED0F0AA1
:102C200080EE201A0E4880ED001AB1EE490ADFED61
:102C30000B0A80EE201A0B4880ED001AB1EE680AEC
:102C4000DFED060A80EE201A074880ED001A18B062
:102C5000BDEC048B10BD00000000000000004842E5
:102C6000280000202C0000203000002090ED000AF9
:102C7000DFED150AB4EEE00AF1EE10FA0CD291ED98
:102C8000000ADFED120AB4EEE00AF1EE10FA03DDFD
:102C900013885B1C1BB2138090ED000ADFED0B0A5A
:102CA000B4EEE00AF1EE10FA0CDD91ED000ADFED72
:102CB000060AB4EEE00AF1EE10FA03D213885B1EA6
:102CC0001BB213807047000000002AC300002A4393
:102CD00030B5CC1000F1200353F824304C07E50E3A
:102CE0000F24AC40A343CD1000F1200444F825305C
:102CF000CC1000F1200353F824304C07E40E02FA04
:102D000004F42343CD1000F1200444F8253030BDF5
:102D10002DE9F0470C46DDE90867002100258C46C7
:102D200000BF60E04FF0010808FA01F504EA050C65
:102D3000AC4557D1D0F800804FEA410A4FF0030963
:102D400009FA0AF928EA0908C0F80080D0F80080DA
:102D50004FEA410902FA09F948EA0908C0F8008077
:102D6000012A01D0022A27D1D0F808804FEA410A6F
:102D70004FF0030909FA0AF928EA0908C0F808809F
:102D8000D0F808804FEA410906FA09F948EA09082B
:102D9000C0F80880D0F804904FF0010808FA01F854
:102DA00029EA0809C0F80490D0F8048003FA01F970
:102DB00048EA0908C0F80480D0F80C804FEA410ABC
:102DC0004FF0030909FA0AF928EA0908C0F80C804B
:102DD000D0F80C804FEA410907FA09F948EA0908D6
:102DE000C0F80C80491C10299CD3BDE8F087000076
:102DF00010B500200F4908600F48006820F44040DB
:102E00000D4908600846006840F4804008600020D2
:102E10000A49C1F89C02022001F0CCFD01200549BD
:102E20000860022001F0C6FD00200449C1F89802A4
:102E300010BD0000988240420004024000804042E1
:102E40001CB50B48006840F00200094908600120E9
:102E5000022100230246CDE90010C0210548FFF7FA
:102E600057FF0120044908600449C1F89C021CBDB9
:102E700030380240000402409882404200804042C4
:102E800010B500200F4908600F48006820F440404A
:102E90000D4908600846006840F480400860012041
:102EA0000A49C1F89C02022001F084FD0120054975
:102EB0000860022001F07EFD00200449C1F898025C
:102EC00010BD000098824042000402400080404251
:102ED00070B5054600241648006820F440401449A7
:102EE0000860084600680860002616E000201149C6
:102EF0000860022001F05EFD01200F49C1F8980230
:102F00006006040E0B487C38006808B1601CC4B22F
:102F1000012001F04FFD701CC6B2082EE6DB15B98A
:102F2000FFF7AEFF01E0FFF763FF204670BD000032
:102F300000040240988240420080404270B504463E
:102F40001548006820F440401349086008460068AE
:102F500040F480400860002010490860002517E018
:102F6000E0090E49091D08606006040E022001F008
:102F700021FD01200A49C1F89802022001F01AFD42
:102F8000002006490860022001F014FD681CC5B24B
:102F9000082DE5DB70BD000000040240988240422D
:102FA0000080404210B51148006820F440400F49AD
:102FB00008600846006840F48040086001200C4921
:102FC00008600C49C1F89802042001F0F3FC0020CD
:102FD00007490860042001F0EDFC00200549C1F814
:102FE0009802042001F0E6FC10BD0000000402403D
:102FF0009C8240420080404210B50F48006820F497
:1030000040400D4908600846006840F48040086070
:1030100000200A4908600A49C1F89C02042001F016
:10302000C9FC0120054908600549C1F89C0204203B
:1030300001F0C0FC10BD0000000402409882404234
:103040000080404210B500241348006820F440403E
:103050001149086008460068086001200F490860AF
:1030600001F0A8FC01200E49C1F8980201F0A2FC71
:1030700007E0601CC4B2FA2C03DDFFF7BDFF01209E
:1030800010BD0648803800680028F2D10349091FA6
:10309000086000BFF4E70000000402409C82404248
:1030A000008040422DE9F0472DED088B04460D4687
:1030B00016461F46DDE9109A32462946204600F0A2
:1030C000AFF88046B8F1000F7DD14A48006802F0A1
:1030D000C1FB41EC190BB4F9000000EE100AB8EE88
:1030E000C00A10EE101A084602F0B4FB41EC1B0BAC
:1030F0009FED410B53EC102B02F0ECF841EC1A0B56
:1031000053EC192B02F0BCFA41EC180B01F06AFEEB
:103110003B4908603B48006802F09CFB41EC190BFE
:10312000B5F9000000EE100AB8EEC00A10EE101A51
:10313000084602F08FFB41EC1B0B9FED2F0B53EC6D
:10314000102B02F0C7F841EC1A0B53EC192B02F0CC
:1031500097FA41EC180B01F045FE2B4908602B480B
:10316000006802F077FB41EC190BB6F9000000EEA5
:10317000100AB8EEC00A10EE101A084602F06AFBF8
:1031800041EC1B0B9FED1C0B53EC102B02F0A2F833
:1031900041EC1A0B53EC192B02F072FA41EC180BAC
:1031A00001F020FE1A490860154890ED000A194800
:1031B000D0ED000A20EE200A87ED000A124890EDBB
:1031C000000A154800E00FE0D0ED000A20EE200ACA
:1031D00089ED000A084690ED000A1048D0ED000A7B
:1031E00020EE200A8AED000A4046BDEC088BBDE8BF
:1031F000F0870000B8000020000000000000103F31
:1032000088000020BC0000208C000020C0000020AE
:1032100090000020C4000020C8000020CC00002046
:10322000F0B52DED088B83B005460C46164601AB74
:1032300006223B21682000F017FC0746002F7DD1B5
:103240009DF805009DF8041040EA012000B2288096
:103250009DF807009DF8061040EA012000B220808A
:103260009DF809009DF8081040EA012000B2308066
:103270002088404200B22080B4F9000002F013F828
:1032800041EC1B0B9FED3F0B53EC102B02F022F88F
:1032900041EC190B3D48B0F9000002F004F841EC94
:1032A0001B0B9FED3B0B53EC102B02F013F841EC82
:1032B0001A0B53EC192B01F0C7FD41EC180B01F070
:1032C000C3FF00B22080B5F9000001F0ECFF41EC33
:1032D0001B0B9FED2C0B53EC102B01F0FBFF41EC73
:1032E000180B2D48B0F9000001F0DDFF41EC1B0B7D
:1032F0009FED270B53EC102B01F0ECFF41EC1A0B68
:1033000053EC182B01F0A0FD41EC190B01F09CFFD0
:1033100000B22880B6F9000001F0C5FF41EC1B0B9C
:103320009FED180B53EC102B01F0D4FF41EC180B60
:103330001A48B0F9000001F0B6FF00E01CE041ECD3
:103340001B0B9FED130B53EC102B01F0C3FF41EC53
:103350001A0B53EC182B01F077FD41EC190B01F01F
:1033600073FF00B2308020880849088028880A4905
:103370000880308809490880384603B0BDEC088BC6
:10338000F0BD00009A9999999999C93FD000002001
:103390009A9999999999E93FD2000020D400002088
:1033A0002DE9F0472DED048B04460D4616461F46C9
:1033B000DDE90C9A32462946204600F057F880464F
:1033C000B8F1000F49D1B4F9000000EE100AB8EED0
:1033D000C00A10EE101A084602F03CFA41EC190B34
:1033E0009FED200B53EC102B01F074FF41EC180BF8
:1033F00001F0F8FC3860B5F9000000EE100AB8EEF4
:10340000C00A10EE101A084602F024FA41EC190B1B
:103410009FED140B53EC102B01F05CFF41EC180BEB
:1034200001F0E0FCC9F80000B6F9000000EE100A57
:10343000B8EEC00A10EE101A084602F00BFA41EC82
:10344000190B9FED080B53EC102B01F043FF41ECDF
:10345000180B01F0C7FCCAF800004046BDEC048B15
:10346000BDE8F087218F2F030A74513FF0B52DED91
:10347000088B83B005460C46164601AB0622432155
:10348000682000F0F1FA0746002F7DD19DF8050075
:103490009DF8041040EA012051490988084400B20F
:1034A00028809DF807009DF8061040EA01204D494C
:1034B0000988084400B220809DF809009DF8081092
:1034C00040EA012048490988084400B23080208839
:1034D000404200B22080B4F9000001F0E4FE41EC6B
:1034E0001B0B9FED420B53EC102B01F0F3FE41EC54
:1034F000190B4048B0F9000001F0D5FE41EC1B0B60
:103500009FED3A0B53EC102B01F0E4FE41EC1A0B4B
:1035100053EC192B01F098FC41EC180B01F094FED0
:1035200000B22080B5F9000001F0BDFE41EC1B0B9C
:103530009FED2E0B53EC102B01F0CCFE41EC190B40
:103540002D48B0F9000001F0AEFE41EC1B0B9FEDE1
:10355000270B53EC102B01F0BDFE41EC1A0B53EC82
:10356000192B01F071FC41EC180B01F06DFE00B25B
:103570002880B6F9000001F096FE41EC1B0B9FED90
:103580001B0B53EC102B00E025E001F0A3FE41ECF7
:10359000180B1A48B0F9000001F085FE41EC1B0B36
:1035A0009FED120B53EC102B01F094FE41EC1A0B23
:1035B00053EC182B01F048FC41EC190B01F044FED0
:1035C00000B2308020880B49088028880A4908808A
:1035D00030880A490880384603B0BDEC088BF0BD3E
:1035E00082000020800000208400002000000000F5
:1035F0000000E03FDC000020DE000020E0000020B2
:103600002DE9F0472DED088B04460D4616461F4662
:10361000DDE9109A32462946204600F0DBF8804664
:10362000B8F1000F7DD16248006802F013F941EC57
:10363000190BB4F9000000EE100AB8EEC00A10EE43
:10364000101A084602F006F941EC1B0B9FED590BCE
:1036500053EC102B01F03EFE41EC1A0B53EC192BEE
:1036600002F00EF841EC180B01F0BCFB5349086066
:103670005348006802F0EEF841EC190BB5F9000070
:1036800000EE100AB8EEC00A10EE101A084602F05A
:10369000E1F841EC1B0B9FED470B53EC102B01F0B5
:1036A00019FE41EC1A0B53EC192B01F0E9FF41EC28
:1036B000180B01F097FB434908604348006802F08B
:1036C000C9F841EC190BB6F9000000EE100AB8EE8B
:1036D000C00A10EE101A084602F0BCF841EC1B0BB1
:1036E0009FED340B53EC102B01F0F4FD41EC1A0B61
:1036F00053EC192B01F0C4FF41EC180B01F072FBE5
:1037000032490860324890ED000A2C48D0ED000A9A
:1037100020EE200A2E48D0ED010A2A4890ED001A2A
:1037200000E03FE000EE810A2948D0ED020A084699
:1037300090ED001A00EE810A87ED000A244890ED12
:10374000010A1E48D0ED000A20EE200A2048D0EDE4
:10375000030A1C4890ED001A00EE810A1C48D0EDC7
:10376000040A084690ED001A00EE810A89ED000A6D
:10377000174890ED020A1148D0ED000A20EE200A09
:103780001348D0ED040A0F4890ED001A00EE810AAC
:103790000F48D0ED050A084690ED001A00EE810AA8
:1037A0008AED000A4046BDEC088BBDE8F0870000BA
:1037B00094000020000000000000783F88000020F6
:1037C000980000208C0000209C0000209000002029
:1037D000A0000020F0B52DED088B83B006460C4606
:1037E000154601AB062203210C2000F03DF90746E7
:1037F000002F7DD19DF804009DF8051040EA0120BE
:1038000000B230809DF806009DF8071040EA0120C4
:1038100000B220809DF808009DF8091040EA0120C0
:1038200000B228802088404200B220802888404290
:1038300000B22880B6F9000001F035FD41EC1B0B09
:103840009FED410B53EC102B01F044FD41EC190BA3
:103850003F48B0F9000001F026FD41EC1B0B9FED45
:103860003A0B53EC102B01F035FD41EC1A0B53ECE5
:10387000192B01F0E9FA41EC180B01F0E5FC00B25C
:103880003080B4F9000001F00EFD41EC1B0B9FED00
:103890002E0B53EC102B01F01DFD41EC190B2D48A4
:1038A000B0F9000001F0FFFC41EC1B0B9FED260B73
:1038B00053EC102B01F00EFD41EC1A0B53EC192BBD
:1038C00001F0C2FA41EC180B01F0BEFC00B22080FE
:1038D000B5F9000001F0E7FC41EC1B0B9FED1A0B62
:1038E00053EC102B01F0F6FC41EC1A0B1A4800E0E7
:1038F00020E0B0F9000001F0D6FC41EC1B0B9FED7D
:10390000120B53EC102B01F0E5FC41EC190B53ECBE
:103910001A2B01F099FA41EC180B01F095FC00B25A
:10392000288030880A49088020880A490880288829
:103930000949088011220A210C2000F01FF938469D
:1039400003B0BDEC088BF0BD000000000000E03FBC
:10395000D6000020D8000020DA00002010B5002496
:10396000FFF76EFA80226B21682000F007F96420CF
:1039700001F004F800226B21682000F0FFF803201A
:1039800000F0B5F8002000F0A9F8C82000F0D8F841
:1039900000223821682000F0F1F800226A21682016
:1039A00000F0ECF800222321682000F0E7F88222E2
:1039B0003721682000F0E2F87521682000F030F827
:1039C0000446712C01D0732C0DD101226B2168208B
:1039D00000F0D4F800226C21682000F0CFF8C82055
:1039E00000F0AEF801E0012010BD00210C2000F035
:1039F00017F80446482C0DD101220B210C2000F0B1
:103A0000BDF8322000F0BAFF11220A210C2000F08C
:103A1000B5F801E00120E7E700F058FF0020E3E7F8
:103A200070B504460D46FFF7BDFA002141EA440196
:103A3000C8B2FFF783FAFFF705FB2846FFF77EFAC7
:103A4000FFF700FBFFF7AEFA012101EB4401C8B21A
:103A5000FFF774FAFFF7F6FA0020FFF739FA064687
:103A6000FFF7CAFA304670BD2DE9F04106460F4611
:103A700014461D46FFF796FA002141EA4601C8B2F6
:103A8000FFF75CFAFFF7DEFA20B1FFF7B5FA012085
:103A9000BDE8F0813846FFF751FAFFF7D3FAFFF798
:103AA00081FA012101EB4601C8B2FFF747FAFFF79F
:103AB000C9FA0DE0012C04D10020FFF709FA2870A3
:103AC00003E00120FFF704FA2870601EC4B26D1CE9
:103AD000002CEFD1FFF790FA0020D9E710B504468B
:103AE000E006020E1C21682000F048F810BD10B559
:103AF0000446032000EBC400C2B21B21682000F082
:103B00003DF810BD70B504460025BC2C01DB012535
:103B100010E0622C01DB02250CE02A2C01DB0325DE
:103B200008E0142C01DB042504E00A2C01DB052548
:103B300000E006252A461A21682000F01FF870BD13
:103B400070B50446B4F57A7F01DD4FF47A74042C25
:103B500000DA04244FF47A7090FBF4F0401EC5B2F2
:103B60002A461921682000F009F80546264604EB8C
:103B7000D671C1F34F00FFF7C5FF70BD70B50446A5
:103B80000D461646FFF70EFA002141EA4401C8B27D
:103B9000FFF7D4F9FFF756FA18B1FFF72DFA012015
:103BA00070BD2846FFF7CAF9FFF74CFA3046FFF719
:103BB000C5F9FFF747FA18B1FFF71EFA0120EFE742
:103BC000FFF71AFA0020EBE72DE9F0410746884697
:103BD00014461D46284600F033F8C5F1040007FAE4
:103BE00000F60F20284100EA0800064306F00F0601
:103BF000E21704EBD2625211920002F1E022D2F8F5
:103C000000212146E31704EBD3635B11A4EB431CB3
:103C1000012303FA0CF31A432046E31704EBD363A2
:103C20005B119B0003F1E023C3F800210348005D12
:103C300040EA061001490855BDE8F08100E400E0C3
:103C40000146072323EA01021202054B18684FF6CA
:103C5000FF031840034B18431043014B1860704793
:103C60000CED00E00000FA054A0A52020243014B43
:103C70001A60704708ED00E0F0B504460D461646A0
:103C80001F461448006840F00100124908600020F7
:103C90001049083108600F4800680F4908400D4975
:103CA00008600E48091D0860081F006820F4802085
:103CB000091F0860002007490C3108603B46324666
:103CC0002946204600F00CF800210846FFF7CCFFFB
:103CD000F0BD000000380240FFFFF6FE1030002467
:103CE000F0B504460D46002100203D4E366846F4EE
:103CF00080363B4F3E6001E04E1CB1B2384E366814
:103D000006F400361EB941F6FF76B142F4DB41F607
:103D1000FF76B14201D1012060E0314E4036366875
:103D200046F080562E4F40373E602E4E366846F4A1
:103D300040462C4F3E602A4E0836366846F41446FC
:103D4000274F08373E60264E366826F08076244F8F
:103D50003E6045EA84160127C7EB520746EA07464C
:103D600046EA036646F480061D4F3F1D3E603E1F37
:103D7000366846F080763F1F3E6000BF184E3668BA
:103D800006F00076002EF9D0174E366846F480769D
:103D9000154F3E603E46366846F400763E603E462D
:103DA000366846F480663E603E46366846F0050654
:103DB0003E600B4E0836366826F00306084F08377B
:103DC0003E603E46366846F002063E6000BF044E46
:103DD0000836366806F00C06082EF8D1F0BD000053
:103DE0000038024000700040003C02401C49098835
:103DF00001F0200109B31A498988C8B21949098814
:103E000001F40041C9B91749098801F4804161B141
:103E10000A2803D00021134A118020E011490988A3
:103E200041F400410F4A118019E00D2806D10D49D7
:103E3000098841F480410B4A118010E00949098842
:103E4000C1F30D01084A505406490988491C054A26
:103E5000118011460988C72901DD002111807047B2
:103E6000001001407C000020E400002003B4019811
:103E70004100009850EAC12018BF04204A0D18BF25
:103E800040F0010040F2FF72B2EB515F08BF40F01A
:103E90000200012808BF052002B0704700000000A2
:103EA00070B5C1482DED020B2DED0E8B82B0119D2A
:103EB00025F000449FEDBEDB9FEDBFEB84423EDB6F
:103EC000A4F140511098A1F17F6108430FD0BC4884
:103ED000844202DC28D1109830B39DED100B02B063
:103EE000BDEC0E8B02B0BDE8704000F0A6BC9DEDAD
:103EF000100B53EC1D2B51EC100B01F0EBF99DED69
:103F0000100B41EC180B53EC1E2B51EC100B01F075
:103F1000E1F953EC182B00F097FF41EC100B02B0C5
:103F2000BDEC0E8B02B070BD0120FCF75EFA02B052
:103F3000BDEC0E8B02B0BDE8704000F095BCA1480E
:103F40009FEDA18B844256DA9DED100BB4F1795FA1
:103F50000ADA51EC100BFFF789FF042808BF00F0C4
:103F600093FC9DED100BDAE753EC102B51EC100B8A
:103F700001F0B0F941EC190B95480621B0EE490A61
:103F8000F0EE690A784400F0DCFB53EC192B51EC9D
:103F9000100B01F09FF941EC1A0B8E48B0EE490A64
:103FA000F0EE690A0421784400F0CBFB53EC192BA6
:103FB00051EC100B01F08EF953EC182B00F044FF7C
:103FC00041EC100B51EC1A0B53EC102B00F0E4FFFA
:103FD000CDE900019DED000B53EC102B9DED100B76
:103FE00051EC100B01F076F99DED101B53EC112BE9
:103FF00000F02AFFD2E09DED100B51EC100B00F009
:1040000015FD53EC182B01F063FA9FED730BCDE90E
:10401000000153EC102B9DED000B51EC100B01F047
:1040200059F941EC190B6E480621B0EE490AF0EE41
:10403000690A784400F085FB53EC192B51EC100B06
:1040400001F048F941EC1B0B6648B0EE490AF0EE6E
:10405000690A0421784400F074FB53EC192B51ECED
:10406000100B01F037F953EC182B00F0EDFE41EC8A
:104070001C0B51EC190B00F0DBFD41EC180B5A48FE
:104080009FED5BABA04222DC53EC1C2B51EC1B0BD5
:1040900000F082FFCDE900019DED000B51EC180B03
:1040A00053EC102B01F016F953EC182B00F0CCFE5A
:1040B00053EC1A2B01F00EF953EC1D2B01F0E0FA32
:1040C00053EC1E2B01F004FA41EC100B5FE08DED78
:1040D000008B002000909DED000B51EC180B53EC71
:1040E000102B00F0B1FE9DED000B41EC1E0B53ECCC
:1040F000102B51EC100B01F0EDF853EC192B01F0E3
:10410000E7F953EC1E2B00F047FF41EC190B53EC81
:104110001C2B51EC1B0B00F03FFF41EC1B0B53EC35
:104120001A2B51EC190B01F0D5F853EC1D2B01F0B3
:10413000CFF941EC190B53EC1A2B51EC180B01F091
:10414000C9F853EC1B2B01F0C5F853EC192B01F007
:1041500097FA9DED000B41EC180B53EC1A2B51EC28
:10416000100B01F0B7F89FED249B53EC192B01F0D5
:10417000AFF941EC100B51EC180B53EC102B01F084
:104180007FFA53EC192B01F0A3F941EC100B002D31
:104190003FF7C5AE51EC100B00F018FE41EC100BD0
:1041A000BDE60000000000000000F03F000000003D
:1041B000075C143326A6913C182D4454FB21F93F8B
:1041C0000000F07F0000E03F000000000000F03F32
:1041D000D8190000E6190000000000000000E03FD0
:1041E0002A190000381900003333EF3F00000000A7
:1041F0000000000000000040182D4454FB21E93F5E
:1042000070B59B482DED020B2DED068B079D25F01B
:104210000044A04218DC9748844202DC0AD1069888
:1042200040B19DED060BBDEC068B02B0BDE87040C1
:1042300000F003BB002DCCBF9FED8F0B9FED900BCB
:10424000BDEC068B02B070BD8F48A04215DD8F48D3
:10425000A042D8BF4FF0FF3458DD9DED060B51EC66
:10426000100BFFF703FE042808BF00F00DFB9DEDC7
:10427000060BBDEC068B02B070BD9DED060B51EC3C
:10428000100B00F0D3FBCDE9060181489FED828B36
:10429000A0423CDD8248A0421FDD00249FED82AB9E
:1042A0009DED060B53EC1A2B51EC100B00F0CCFDDE
:1042B0009DED060B41EC190B53EC1A2B51EC100B36
:1042C00001F008F853EC182B01F0DAF953EC192B34
:1042D00000F062FECDE9060149E09DED060B0124E8
:1042E00053EC182B51EC100B00F0AEFD9DED060BBE
:1042F00041EC190B53EC182B51EC100B01F0C0F9E9
:1043000053EC192B00F048FECDE906012FE0684878
:10431000A0421FDD02249FED689B9DED060B53EC30
:10432000192B51EC100B00F0D5FF53EC182B00F0BB
:104330008BFD9DED060B41EC180B53EC192B51EC4A
:10434000100B01F09DF953EC182B00F025FECDE980
:1043500006010CE09DED060B032453EC102B9FEDA2
:10436000580B51EC100B00F017FECDE906019DED46
:10437000060B53EC102B51EC100B00F0ABFF41EC93
:10438000180B53EC182B00F0A5FF41EC190B4E480D
:104390000621B0EE490AF0EE690A784400F0D1F93E
:1043A00053EC182B51EC100B00F094FF41EC180B60
:1043B0004648B0EE490AF0EE690A0521784400F05B
:1043C000C0F953EC192B51EC100B00F083FF41ECBA
:1043D000100B51EC180B53EC102B002C0EDA00F0E4
:1043E00033FD9DED061B53EC112B00F073FF9DED8B
:1043F000061B53EC112B01F06BF835E000F024FDA7
:104400009DED061B53EC112B00F064FF41EC100BEB
:104410002F48784400EBC40090ED001B51EC100BCA
:1044200053EC112B01F02CF99DED061B53EC112BD5
:1044300001F026F941EC100B2648784400EBC4004B
:1044400090ED001B51EC100B53EC112B01F040F8D8
:1044500041EC100B002DA2BFBDEC068B02B070BD6D
:1044600051EC100B00F0B2FC41EC100B01E7000026
:10447000000010440000F07F182D4454FB21F93F48
:10448000182D4454FB21F9BF0000DC3F0000203E02
:104490000000F33F00000000000000000000F03FBB
:1044A0000000E63F000000000000000000000040A7
:1044B0000080034000000000000000000000F83F02
:1044C000000000000000F0BF7A1600003016000067
:1044D000BA1500007215000070B56B4E2DED040B7F
:1044E0002DED028B82B0DDF81CC0DDE905235C42B6
:1044F0002CF000411C4341EAD474049D22F000409A
:10450000B44205D86C422C4340EAD474B4420BD96F
:104510009DED061B9DED040B02B0BDEC028B04B0BB
:10452000BDE8704000F093B9ACF14054A4F17F6451
:104530001C430BD0022404EAAC7444EAD274054351
:104540009FED538B9FED542B07D015E09DED040B91
:1045500051EC100B00F0B1F942E0002C11BF012C1E
:104560009DED040B02B0BDEC028B04BF04B070BD26
:10457000022C38D0032C3BD00B439FED491B9FED01
:104580004A0B0AD0B14218D1B04209D121F0804182
:1045900020F08040079105900FE0002A15DA10E026
:1045A000434B7B44002C08BF93ED000B0DD0012C36
:1045B00010D0022C17D0032C1AD0B0421DD1002AE3
:1045C00003DAB0EE410AF0EE610A02B0BDEC028BF4
:1045D00004B070BD93ED000B51EC100B00F0F6FB36
:1045E00041EC100BF1E7B0EE480AF0EE680AECE798
:1045F000B0EE420AF0EE620AE7E7401A00153C28E6
:10460000C8BF8DED000B19DCBCF1000FBEBF10F16F
:104610003C0F9FED290B8DED000B0FDB9DED060B85
:1046200053EC102B9DED040B51EC100B00F0B4FC7F
:1046300000F0FCF900F041F9CDE90001002C08BFC1
:104640009DED000BC1D0012C10D0022C9FED1C0B56
:1046500053EC102B9DED000B51EC100B0DD001F025
:104660000FF853EC182B01F00BF8B9E7019880F024
:10467000004001909DED000BA7E701F001F853EC1D
:10468000182B00F025FFABE70000F07F00000000D2
:10469000182D4454FB210940182D4454FB2109C016
:1046A000182D4454FB21F9BF182D4454FB21F93F28
:1046B000A214000000000000000000000000000044
:1046C000075C143326A6A13C00B52DED048BB0EE9B
:1046D000409AF0EE609A83B051EC190B00F004FFA1
:1046E00041EC180B18EE100A18EE901A8DED008BA5
:1046F000002818BF0120084320F00040C0F17F606F
:1047000000F1E040C00F14D019EE101A19EE900A13
:104710008DED009B002918BF0121084320F00040C7
:10472000C0F17F6000F1E040C00F04BF0120FBF743
:104730005CFEB0EE480A03B0F0EE680ABDEC048BF4
:1047400000BD70B504462DED028B4D1E00EBC5007B
:10475000B0EE408AF0EE608A90ED000B35F0060076
:1047600017D053EC182B51EC100B00F0B3FD41ECBB
:10477000100B6D1E04EBC50090ED001B51EC100BEF
:1047800053EC112B00F060FB41EC100B35F00600F0
:10479000E7D1022D36D0042D1CD0062D1CBFBDEC58
:1047A000028B70BD53EC182B51EC100B00F092FDF6
:1047B00094ED0A1B53EC112B00F046FB53EC182B25
:1047C00000F088FD94ED081B53EC112B00F03CFB2E
:1047D00041EC100B53EC182B51EC100B00F07AFD50
:1047E00094ED061B53EC112B00F02EFB53EC182B11
:1047F00000F070FD94ED040B53EC102B00F024FB43
:1048000041EC100B53EC182B51EC100B00F062FD37
:1048100094ED021B53EC112B00F016FB53EC182BFC
:1048200000F058FD94ED001B53EC112B00F00CFB35
:10483000BDEC028B41EC100B70BD10B553EC102B8E
:1048400051EC100B00F000FB41EC100B10BD10B54B
:1048500053EC112B51EC100B00F0F6FA41EC100B5D
:1048600010BD0000000000009FED050B10B553ECDB
:10487000102B51EC100B00F08FFB41EC100B10BD16
:1048800000000000000000009FED050B10B553EC88
:10489000102B51EC100B00F01DFD41EC100B10BD66
:1048A000000000000000001030380A2801D201206A
:1048B00070470020704700BF704710B541EC100BE7
:1048C000FFF79EFC51EC100B10BD0000FEB500245C
:1048D00000250026002712E06A4601A902A8FEF77B
:1048E000C5FDBDF80800204404B2BDF8040028440A
:1048F00005B2BDF80000304406B2781CC7B20A2FDA
:10490000EADB60420A2190FBF1F000B2084908801E
:1049100068420A2190FBF1F000B20649088070421B
:104920000A2190FBF1F000B203490880FEBD0000AF
:104930008000002082000020840000204FF0E02151
:10494000096921F004014FF0E0221161C21700EB68
:104950005272C2F3C702074B1A701946097801EB6D
:104960004102C2EBC1114FF6FF7202EAC101024AD5
:1049700011807047740000207600002070B5044656
:104980004FF4077094FBF0F0C6B24FF4077094FB3D
:10499000F0F100FB114085B205E04FF4077000F024
:1049A00027F8701EC6B2002EF7D115B1284600F0C8
:1049B0001FF870BD01460D4A12784A434FF0E023BC
:1049C0005A6100229A6101221A6100BF4FF0E02271
:1049D000106900F001021AB100F48032002AF5D00B
:1049E00000224FF0E0231A619A61704774000020A2
:1049F00001460D4A12884A434FF0E0235A610022D3
:104A00009A6101221A6100BF4FF0E022106900F0A4
:104A100001021AB100F48032002AF5D000224FF0D2
:104A2000E0231A619A6170477600002082B0CDE9D8
:104A3000000121F0004001909DED000B02B051EC0F
:104A4000100B704700BF054A128802F04002002A8E
:104A5000F9D0C2B2014B9A807047000000100140AB
:104A6000F0EE400AB7EE082AF0EE421AB6EE002A3F
:104A700020EE822AB0EE421AB0EE600A10EE100A62
:104A80000749A1EB600000EE100A61EE002AB7EEC4
:104A9000082A02EEC02A22EE002AB0EE420A70472F
:104AA000865A375F2DED068B9AB000240723022229
:104AB00008214FF4A870FFF7DFF8A820FFF73EFFAA
:104AC0004FF4E131542000F0EBF8FEF747FF0446C5
:104AD00005E047A0FBF7D8FBC820FFF74FFF002CED
:104AE000F7D1FEF735F881E00BA80CA90DAB14AA9D
:104AF000CDE9001015A916A8FEF752FC08A809A9CF
:104B00000AAB11AACDE9001012A913A8FEF7CAFA40
:104B100005A806A907AB0EAACDE900100FA910A899
:104B2000FEF76EFD17AA19A918A89DED054ADDED3F
:104B3000063A9DED073ADDED082A9DED092ADDEDE7
:104B40000A1A9DED0B1ADDED0C0A9DED0D0AFCF71E
:104B5000B5FB2B4890ED000A2A4880ED000A9DED38
:104B6000170A274880ED000A274A2649FEF77EF8F3
:104B7000254917A8FDF7C0FF9DED190A2348D0ED80
:104B8000000A30EE200A8DED190A9DED180A204822
:104B9000D0ED000A30EE200A8DED180A9DED170ABF
:104BA0001C48D0ED000A30EE200A8DED170A179848
:104BB00000F050FE41EC180B199800F04BFE41EC50
:104BC000190B189800F046FE41EC1A0B8DED028B84
:104BD0008DED009B53EC1A2B0FA0FBF755FB13A098
:104BE000FBF752FB41F29640FFF7E4FE7CE7000042
:104BF0004D50555F496E6974206572726F72200066
:104C000020000020240000201C000020280000209C
:104C10002C0000203000002025302E316620253069
:104C20002E31662025302E31660000000D0A00006E
:104C300000B52DED048B83B041EC190B00F054FC52
:104C400041EC180B18EE100A18EE901A8DED008B3F
:104C5000002818BF0120084320F00040C0F17F6009
:104C600000F1E040C00F14D019EE101A19EE900AAE
:104C70008DED009B002918BF0121084320F0004062
:104C8000C0F17F6000F1E040C00F04BF0120FBF7DE
:104C9000ACFB51EC180B03B0BDEC048B00BD000065
:104CA000F0B52DED028B83B005460E46384905FB65
:104CB00001F000EE100AF8EE400A300100EE100A92
:104CC000B8EE400A80EE801AB0EE418ABCEEC80A07
:104CD00010EE100A84B200EE104AB8EE400A38EE28
:104CE000400AF3EE000A20EE200ABCEEC00A10EEE5
:104CF000107A4FF6FF7000EA0414E01984B22548D8
:104D0000006840F001002349086022481430006820
:104D100040F010001F4914310860012002210023D7
:104D20000A46CDE900104FF4C0611B48FDF7F0FFC3
:104D3000072209211848FDF7CBFF07220A21164850
:104D4000FDF7C6FF15480481808920F4004013490F
:104D500088810846808940F008008881084680895B
:104D600040F0040088810846808940F02000888156
:104D70000223252203210846FEF726FF07488089E3
:104D800040F400500549888103B0BDEC028BF0BDB2
:104D900040420F0030380240000002400010014045
:104DA00010B500290AD00878002807D005487844B3
:104DB000FBF788FE002801D0002010BD024878448F
:104DC00010BD0000560D00004E0D000081F00041A6
:104DD000704780F00040704721F00041704720F09C
:104DE0000040704721F00042A2F16052B2F5801FEE
:104DF00001F0004328BFD2F17F6C0BD95FEA001CA1
:104E000043EAC20242EB507018BF704728BF20F03F
:104E100001007047B2F5801FBCBF184670474FEACB
:104E2000410C1CF5001F02D2084600F089BD70B588
:104E300000F0FAFA00000089FFF7F6BF4FF00040DB
:104E4000A0F580007047000010B591EA030F48BF3D
:104E500083F0004300F11C84841A71EB030C05D22B
:104E6000121943EB0C03001B61EB0C01DFF824E18A
:104E70004FEA1154A4EB135C1EEA430F18BF9EEADD
:104E8000445F73D023EA0E03DCF1200E21EA0451C3
:104E900043F4801332D322FA0CFE10EB0E0023FAF7
:104EA0000CFE41EB0E01CCF1200E03FA0EFE10EBCE
:104EB0000E0051F10001B1F5801FCCF1200E32D26D
:104EC00001EB045112FA0EF2BDE8104058BF7047D2
:104ED000401C38BF5FEA420218BF7047002814BF69
:104EE00020F0010041F100014FEA410313F5001FDA
:104EF00038BF7047A1F1C04100F0E4BA012A43EB8A
:104F00000302ACF1200CDCF11F0E32BF4FF0000E9B
:104F100023FA0CF310EB030041EB0451B4EB115FE7
:104F2000D0D0A1EB045101F5801149085FEA3000AF
:104F300001EB04510ED350F1000038BF12FA0EFEFF
:104F400008D1BDE81040C9E7401C38BF5FEA420203
:104F5000CAD1C3E7BDE810404FEA410313F5001F73
:104F600038BF7047A1F1C04100F0ACBA9EEA445F7F
:104F700008D011EA5E0FBDE8104004BF01F0004107
:104F800000207047BDE8104070B500F04DFA00BF3A
:104F900064FBBE3E0000E0FF2DE9C04130B4DFF805
:104FA000A0C23CEA111418BF3CEA131400F0EC80D4
:104FB00081EA03051CEA111444EAD57418BF1CEAFF
:104FC000131500F0C780A4EB05044FF0004545EA37
:104FD000C12145EAC32341EA505143EA525304F147
:104FE0007F74994204F500344FEAC0204FEAC22290
:104FF00008BF904200F09C804FEA13650FF2401604
:10500000765D4FEA134506FB05F7C7F1807706FB8F
:1050100007F74FEAD737A7FB03687642C8F5803811
:10502000A7FB06CE38BFA8F1010807FB08E64FF042
:10503000000EA6FB028CE6FB03CEDCF1000CCEF1E9
:10504000004E38BFAEF1010EA6FB0C584FF0000722
:105050004FF00005E6FB0E87A1FB08C6A0FB07CEBC
:1050600016EB0E0645F10005E1FB076515F1E04E74
:105070007EBFA4F580345FEA46066D4116F18007D5
:1050800045F100054FEA17274FEA066647EA05672C
:10509000A6F1DE46B6F1805F4FEA15251FD93846E6
:1050A00024F0010C05EBC471BCF1FE6F01EB0C1197
:1050B00002D8F0BCBDE8008124425CBF01F5801E2F
:1050C0009EEAC47F02D4F0BCBDE80081244238D4FB
:1050D000F0BCA1F1C041BDE8004100F0F3B94FEAD6
:1050E000D22242EA43524FEAD323A7FB02864FEA79
:1050F000D02040EA415007FB03661EEA0E0F4FEA3C
:10510000D12105FB026658BFA6EB0056B6EB005650
:105110004FEA520E4EEAC37E18EB0E0E56EB530EBC
:10512000BDD518EB02085E417F1C55F10005B6E7BE
:105130004FF480154FF000074FF000064FF00008C5
:10514000ADE7F0BC4FF0000001F1C04101F00041BB
:10515000BDE8008111EA0C1F0CEA131500D00CE029
:1051600013EA0C1F00F025804FF00000F0BC81EA2C
:10517000030101F00041BDE80081F0BCBDE8004141
:1051800081EA030100F09EB9F0BCBDE8004170B5B2
:1051900000F04AF9097EFC3E00F007B881EA0301FD
:1051A0004FF0000001F00041704781EA030100F078
:1051B00089B9F0BCBDE800414FF0000021497047BB
:1051C000FFFDFBF9F7F5F4F2F0EEEDEBE9E8E6E4CC
:1051D000E3E1E0DEDDDBDAD8D7D5D4D3D1D0CFCD53
:1051E000CCCBCAC8C7C6C5C4C2C1C0BFBEBDBCBB8C
:1051F000BAB9B8B7B6B5B4B3B2B1B0AFAEADACAB87
:10520000AAA9A8A8A7A6A5A4A3A3A2A1A09F9F9E60
:105210009D9C9C9B9A999998979796959594939312
:10522000929191908F8F8E8E8D8C8C8B8B8A8989A9
:10523000888887878685858484838382828181802C
:105240000000FF070000F87F4FEA41034FEA535385
:10525000A3F58063D3F11E03C8BFD3F1210C0CDD8D
:105260004FF0004242EAC12242EA505232FA03FCB5
:105270008CEAE17CACEBE1707047102BC4BF0020DE
:10528000704703F5787CBCF1FF3F04D06FF000421B
:1052900082EA2100704770B500F0C6F84992248078
:1052A00000207047F2E710F0004248BF4042B0FAD9
:1052B00080F310FA03F10AD0C3F11D0303F58063F4
:1052C0004FEA415002EB035202EBD12170474FF0FD
:1052D00000007047DFF848C170B51CEA111E1EBF00
:1052E0001CEA13159EEA0C0F95EA0C0F00F06F8074
:1052F00081EA030423EA4C134EEAD47E21EA4C11DE
:1053000041F4801143F48013AE44A1FB024CA0FB96
:105310000365AEF17F7E361955EB0C05A1FB034CFE
:105320004CF10003A0FB021C16EB0C06654153F187
:105330000003094218BF46F0010613F4007F0BD1A9
:105340004FEA03314FEA0530340341EA155140EA90
:1053500016506FF003020AE04FEAC3214FEAC5205E
:10536000F40241EA555140EA56506FF0020202EB56
:105370002E4201EB025585EACE710AD05FEA440C59
:1053800018BF24F0004450F1000041F1000120EA70
:10539000D47040F2FE7C624500D270BDA84214BFBA
:1053A0004FF080444FF04044002E08BF0024BEF16F
:1053B000806FA8BFA1F1C041BDE8704080F282803B
:1053C0004FF0000001F1C04101F0004170479EEA3A
:1053D0000C0F0CEA131518BF95EA0C0F06D04FF00E
:1053E000000081EA030E0EF0004170BD00F01CF8D1
:1053F0008900013E00F007B800F009B84FEA430CFD
:105400005FEA5C5C08D081EA030100F05BB84FEA18
:10541000410C5FEA5C5CF6D14FF000000149704737
:105420000000FF070000F87F0EF1020E2EF0030EC1
:105430005EF8046B364205D4012A43EB030515F5EB
:10544000001F12D8012841EB010C1CF5001F0CD8DD
:105450000ED14FEAD17C15F5001F0CEB4C0C0CF172
:10546000020C08BF4CEBD37C04E04FF0080C01E0C9
:105470004FEAD37C0CEB4C0526FA05F606F007063E
:10548000B6F1040C06D20EEB860CBDE870404CF071
:10549000010C6047DFE80CF0090B02024FF00041FD
:1054A0004FF00000A1F5002170BD194610460128FB
:1054B00051EB010418BFD4F5001484BF002001F0A3
:1054C000004170BD0808A0F500114FEA3101704796
:1054D00091EA030F10B581F000413FF5BDAC83F0B8
:1054E000004300F0D5B800002DE9F04101F5801C23
:1054F000BCF5001FC0F2A9804FEA115C21EA0C51F3
:105500000CF1FD0C41F480115FEA5C0C0CF5C07CE1
:1055100001D34000494130A4890241EA90518702F9
:105520008E0E0A0CA45D04FB04F602FB06F6C6F11F
:105530004046A4FB0662F60D46EA422606FB06F448
:10554000A4FB01235242C3F1404338BF5B1EA6FBBC
:1055500002420024E6FB0324D20B42EA4446A6FBA7
:105560000623A1FB02E2A3FB07E4E3FB61426442E2
:10557000C2F1404E38BFAEF1010EA6FB04234FF03E
:105580000002E6FB0E32A2FB03463400E2FB62643B
:10559000A1FB06E6A4FB07E8E4FB61687642C8F1DC
:1055A000405838BFA8F10108A2FB06E4A3FB08E5B8
:1055B000E2FB6854A1FB05E6A7FB04E8E1FB648677
:1055C00018F1200556F10006A809A8F11B08B10939
:1055D00008F03F08B8F10A0F40EA86601CD901EBD9
:1055E0000C51BDE8F08100BFFCF5EEE8E2DDD8D358
:1055F000CFCBC7C3C0BDB9B6B4B1AEACA9A7A5A344
:10560000A19F9D9B9A9896959392908F8D8C8B8954
:105610008887868584838281A0FB006800FB01F275
:1056200008EB4208B8EB872807D5341858EB01047B
:10563000D5D5401C51F10001D1E7341A78EB0104B3
:10564000CDD4401E71F10001C9E75FEA4C0C5FEA5E
:105650009C5C0DD105D34FF0000001F00041BDE886
:10566000F081BDE8F04170B5FFF7DEFE6DDBFFBEF7
:10567000BDE8F0414FF00000004970470000F87F9E
:1056800010B591EA030F48BF83F000433FF5E4AB48
:10569000841A71EB030C07D212198CF0004C43EB07
:1056A0000C03001B61EB0C01DFF8A4E14FEA11547D
:1056B000A4EB135C1EEA430F18BF9EEA445F00F0A0
:1056C000B08023EA6E03524221EA0451C3EB6E0319
:1056D00038BF5B1EDCF1200E25D322FA0CFE10EB46
:1056E0000E0043FA0CFE41EB0E01CCF1200E03FA42
:1056F0000EFE10EB0E0051F10001CCF1200E29D46A
:1057000012FA0EF201EB0451BDE8104058BF704789
:10571000401C1CBFB2F1004F704700280CBF491C51
:1057200020F00100704712EB020E43EB030218BF9A
:105730004FF0010E4EEA4202ACF1200CDCF11E0EDD
:1057400054D943FA0CFE10EB0E0051F1FF31CCF1AD
:105750001E0ED5D50EF1010E12FA0EFE404141EBA0
:10576000010101EB445C5FEA5C5C10D910EBDE7078
:1057700001EB045138BFBEF1004FBDE8104018BF27
:10578000704700280CBF491C20F00100704730D240
:105790004FEAD42C11F5001124F400641BD0B1FAA7
:1057A00081F20B3AA41AA41ED2F12003914030FAE0
:1057B00003F31943904001EBCC71002C01EB045131
:1057C000BDE81040A8BF704701F1C0414FF0000094
:1057D00001F000417047B0FA80F310FA03F100D1F4
:1057E00010BDE41A173C4805C90AE4E701EB04516F
:1057F00010BD491001EB0451BDE810404FEA3000E4
:1058000002E04FF0000170474A0008BF0042F8D0A4
:10581000B2F5001F28BF704701F000414FF00000B3
:1058200070479EEA445F07D011EA5E0FBDE8104062
:1058300004BF002100207047BDE8104070B5FFF79D
:10584000F3FD00BF40DFF63E83F000411046704795
:105850000000E0FF43004FEAD30C4FEA3C0C43400A
:105860001FBF40070CF1605113F0FE4F70471CF052
:10587000006F03D100200CF0004170470CF0004392
:1058800043EA507010B540EACC0000F00EF800BFBB
:10589000000000924FEA0001FFF714BE4FF00041F4
:1058A0004FF00000A1F5002170470EF1020E2EF01E
:1058B000030E5EF8044B244204D44FEA4102B2F1D5
:1058C0007F4F11D84FEA4003B3F17F4F0CD80ED170
:1058D0004FEAD07CB2F17F4F0CEB4C0C0CF1020C78
:1058E00008BF4CEBD17C04E04FF0080C01E04FEA1C
:1058F000D17C0CEB4C0324FA03F404F00704B4F15C
:10590000040C06D20EEB840CBDE810404CF0010CE8
:105910006047DFE80CF0070802024FF00040A0F5F6
:10592000800010BD0846420018BFD2F1807288BFC7
:1059300000F0004010BD4FF04070E1EE100A7047DB
:10594000FF2141EAD050C0057047FAF72BBE040092
:10595000000800000000000000020001000010002C
:10596000555555555555C53F7D6FEB0312D6D4BFE0
:105970005544880E55C1C93F3B8F68B52882A4BFE6
:1059800088B20175E0EF493F09F7FD0DE13D023FA7
:105990004B2D8A1C273A03C0C88A599CE52A00402F
:1059A00059018D1B6C06E6BF82922EB1C5B8B33F7C
:1059B0004FBB610567ACDD3F182D4454FB21E93F27
:1059C0009BF681D20B73EF3F182D4454FB21F93F16
:1059D000E2652F227F2B7A3C075C143326A6813C9C
:1059E000BDCBF07A8807703C075C143326A6913C47
:1059F000C4EB98999999C9BF711623FEC671BCBFB3
:105A00006D9A74AFF2B0B3BF9AFDDE522DDEADBF1A
:105A10002F6C6A2C44B4A2BF0D5555555555D53F32
:105A2000FF8300922449C23F6E204CC5CD45B73F4D
:105A3000513DD0A0660DB13FEB0D76244B7BA93FC5
:105A400011DA22E33AAD903F0000000000000000B0
:105A500002400000000000A000000000054000001F
:105A6000000000C8000000000C4000000000409C46
:105A700000000000194000000020BCBE0000000033
:105A800034400000BFC91B8E00000004B540000078
:105A9000504BCFD06607E2CF010000006C41000000
:105AA0003E8251AADFEEA73401000000D942000077
:105AB000DCB5A0E23A301F97FFFFFFFFB4450000BE
:105AC000FD25A0C8E9A3C14FFFFFFFFFFF3F000076
:105AD0000000008000000000FF3F00000000008088
